:100000000C9446000C9465000C9465000C946500FB
:100010000C9465000C9465000C9465000C946500CC
:100020000C9465000C9465000C9465000C946500BC
:100030000C9465000C9465000C9465000C946500AC
:100040000C9465000C9465000C9465000C9465009C
:100050000C9465000C9465000C9465000C9465008C
:100060000C9465000C9465000C9465000C9465007C
:100070000C9465000C9465000C9465000C9465006C
:100080000C9465000C9465000C94650011241FBE4F
:10009000CFEFD0E4DEBFCDBF11E0A0E0B1E0EAE4F5
:1000A000F1E000E00BBF02C007900D92AE30B10747
:1000B000D9F721E0AEE0B1E001C01D92A231B20754
:1000C000E1F70E947E000C94A3000C940000CF93F3
:1000D000C82F8A3019F48DE00E9467008091C0001B
:1000E00085FFFCCFC093C60080E090E0CF910895DB
:1000F000EAE7F0E08081806E8083089580EC81B92A
:100100008FE382B98FEF87B918B80E94780087E132
:1001100090E090931101809310018091780090916C
:10012000790090930F0180930E012091100130917E
:1001300011012817390718F018B812B8EECF8FEF51
:0A01400088B982B9EACFF894FFCF26
:0E014A0000000002000000006700000000003E
:00000001FF
